:020000040800F2
:10800000C00A00203DB7000829B700082BB70008B8
:108010002DB700082FB7000831B700080000000096
:1080200000000000000000000000000033B700085E
:1080300035B700080000000037B7000839B700085E
:108040007DB7000881B7000885B7000889B7000828
:108050008DB7000891B7000895B7000899B70008D8
:108060009DB70008A1B70008A5B70008A9B7000888
:10807000ADB70008B1B70008B5B70008B9B7000838
:10808000BDB70008C1B70008C5B70008C9B70008E8
:10809000CDB70008D1B70008D5B70008D9B7000898
:1080A000DDB70008E1B70008E5B70008E9B7000848
:1080B000EDB70008F1B70008F5B70008F9B70008F8
:1080C000FDB7000801B8000805B8000809B80008A5
:1080D0000DB8000811B8000815B8000819B8000854
:1080E0001DB8000821B8000825B8000800000000ED
:1080F0000000000000000000000000000000000080
:10810000000000000000000029B800082DB8000899
:1081100031B8000835B8000839B800083DB8000883
:1081200041B8000845B8000849B800084DB8000833
:1081300051B8000855B8000859B800085DB80008E3
:1081400061B8000865B8000869B800086DB8000893
:10815000000000000000000000000000000000001F
:10816000000000000000000000000000000000000F
:1081700000000000000000000000000000000000FF
:108180000000800180018001800180018001800168
:1081900080018001800180018001800100000000D9
:1081A00080018001000000000000000000000000CD
:1081B00000000000CC00CC00CC00CC00CC00CC00F7
:1081C00000000000000000000000000000000000AF
:1081D000000000000000000000000000000000009F
:1081E000000000000000000000000000600C600CB7
:1081F000600C30063006FE1FFE1F300638071803DD
:10820000FE1FFE1F180318038C018C018C01000057
:1082100000008000E003F80F9C0E8C1C8C188C0072
:108220009800F801E007800E801C8C188C189C18B0
:10823000B80CF00FE0038000800000000000000098
:108240000000000000000E181B0C110C1106110696
:10825000110311039B018E01C038C06C604460445F
:10826000304430441844186C0C3800000000000002
:108270000000E001F0033807180618063003F0018B
:10828000F000F8009C310E33061E061C061C063F4B
:10829000FC73F0210000000000000000000000005E
:1082A000000000000C000C000C000C000C000C0086
:1082B00000000000000000000000000000000000BE
:1082C00000000000000000000000000000000000AE
:1082D0000000000200038001C000C00060006000D8
:1082E000300030003000300030003000300030000E
:1082F00060006000C000C0008001000300020000B8
:10830000000020006000C000800180010003000325
:10831000000600060006000600060006000600062D
:108320000003000380018001C00060002000000005
:10833000000000000000000000000000C000C000BD
:10834000D806F807E00130033807000000000000FD
:10835000000000000000000000000000000000001D
:10836000000000000000000000000000800180010B
:10837000800180018001FC3FFC3F80018001800181
:1083800080018001000000000000000000000000EB
:1083900000000000000000000000000000000000DD
:1083A00000000000000000000000000000000000CD
:1083B0000000800180010001000180000000000039
:1083C00000000000000000000000000000000000AD
:1083D0000000000000000000E007E00700000000CF
:1083E000000000000000000000000000000000008D
:1083F000000000000000000000000000000000007D
:10840000000000000000000000000000000000006C
:108410000000C000C00000000000000000000000DC
:108420000000000C000C000600060006000300031C
:1084300000038003800180018001C000C000C000F3
:10844000600060000000000000000000000000006C
:108450000000E003F007380E180C0C180C180C186C
:108460000C180C180C180C180C180C18180C380ECA
:10847000F007E00300000000000000000000000022
:10848000000000018001C001F00198018801800115
:1084900080018001800180018001800180018001D4
:1084A00080018001000000000000000000000000CA
:1084B0000000E003F80F180C0C180C180018001836
:1084C000000C000600038001C000600030001800AE
:1084D000FC1FFC1F00000000000000000000000066
:1084E0000000E001F807180E0C0C0C0C000C000644
:1084F000C003C007000C001800180C180C18180C4A
:10850000F807E00300000000000000000000000089
:108510000000000C000E000F000F800DC00C600C5E
:10852000600C300C180C0C0CFC3FFC3F000C000CD9
:10853000000C000C00000000000000000000000023
:108540000000F80FF80F180018000C00EC03FC07EF
:108550001C0E001C0018001800180C181C0C180E1B
:10856000F807E00300000000000000000000000029
:108570000000C007F00F381C181818000C00CC03BE
:10858000EC0F3C0E1C1C0C180C180C18181C380E88
:10859000F007E00300000000000000000000000001
:1085A0000000FC1FFC1F000C0006000600038003F7
:1085B0008001C001C000E000600060007000300079
:1085C000300030000000000000000000000000004B
:1085D0000000E003F007380E180C180C180C3806D1
:1085E000F007F007180C0C180C180C180C18380CA5
:1085F000F80FE00300000000000000000000000091
:108600000000E003F007380E1C0C0C180C180C18B6
:108610001C1C381EF81BE0190018000C000C1C0E66
:10862000F807F0010000000000000000000000005A
:108630000000000000000000000000008001800138
:10864000000000000000000000000000000000002A
:108650008001800100000000000000000000000018
:108660000000000000000000000000008001800108
:1086700000000000000000000000000000000000FA
:108680008001800100010001800000000000000066
:1086900000000000000000000000000000000000DA
:1086A0000010001C800FE003F8001800F800E00341
:1086B000800F001C001000000000000000000000FF
:1086C00000000000000000000000000000000000AA
:1086D000F81F000000000000F81F0000000000006C
:1086E000000000000000000000000000000000008A
:1086F000000000000000000000000000000000007A
:1087000008003800F001C007001F0018001FC00754
:10871000F001380008000000000000000000000028
:108720000000E003F80F180C0C180C180018000CCF
:10873000000600038001C000C000C000000000006F
:10874000C000C000000000000000000000000000A9
:1087500000000000E00718180420C229224A114432
:1087600009440944094409221113E20C024004207F
:108770001818E007000000000000000000000000E2
:10878000000080038003C006C006C006600C600CB9
:10879000301830183018F83FF83F1C700C600C602F
:1087A00006C006C00000000000000000000000003D
:1087B0000000FC03FC0F0C0C0C180C180C180C0C13
:1087C000FC07FC0F0C180C300C300C300C300C1863
:1087D000FC1FFC070000000000000000000000007B
:1087E0000000C007F01F38381C300C70066006000F
:1087F0000600060006000600060006600C701C302D
:10880000F01FE00700000000000000000000000072
:108810000000FE03FE0F060E06180618063006308E
:108820000630063006300630063006180618060EEA
:10883000FE0FFE030000000000000000000000002A
:108840000000FC3FFC3F0C000C000C000C000C0076
:10885000FC1FFC1F0C000C000C000C000C000C009A
:10886000FC3FFC3F00000000000000000000000092
:108870000000F83FF83F1800180018001800180012
:10888000F81FF81F1800180018001800180018002A
:1088900018001800000000000000000000000000A8
:1088A0000000E00FF83F3C780E6006E007C00300D0
:1088B000030003FE03FE03C007C006C00EC03CF069
:1088C000F83FE00F00000000000000000000000082
:1088D00000000C300C300C300C300C300C300C30F4
:1088E000FC3FFC3F0C300C300C300C300C300C30AA
:1088F0000C300C3000000000000000000000000000
:1089000000008001800180018001800180018001E0
:10891000800180018001800180018001800180014F
:108920008001800100000000000000000000000045
:10893000000000060006000600060006000600060D
:10894000000600060006000600061806180638078E
:10895000F003E00100000000000000000000000043
:10896000000006300618060C060606038601C6003F
:1089700066007600DE008E0106030606060C061869
:10898000063006600000000000000000000000004B
:10899000000018001800180018001800180018002F
:1089A0001800180018001800180018001800180007
:1089B000F81FF81F00000000000000000000000089
:1089C00000000EE01EF01EF01EF036D836D836D865
:1089D00036D866CC66CC66CCC6C6C6C6C6C6C6C6C3
:1089E00086C386C3000000000000000000000000F5
:1089F00000000C301C303C303C306C306C30CC30E3
:108A0000CC308C310C330C330C360C360C3C0C3C1B
:108A10000C380C30000000000000000000000000D6
:108A20000000E007F81F1C380E70066003C003C08A
:108A300003C003C003C003C003C006600E701C382F
:108A4000F81FE00700000000000000000000000028
:108A50000000FC0FFC1F0C380C300C300C300C30BC
:108A60000C18FC1FFC070C000C000C000C000C0088
:108A70000C000C00000000000000000000000000DE
:108A80000000E007F81F1C380E70066003E003C00A
:108A900003C003C003C003C007E006630E3F1C3CD5
:108AA000F83FE0F700C000000000000000000000F8
:108AB0000000FE0FFE1F063806300630063006386E
:108AC000FE1FFE0706030606060C061806180630EB
:108AD00006300660000000000000000000000000FA
:108AE0000000E003F80F1C0C0C180C180C001C0004
:108AF000F803E00F001E0038063006300E301C1C54
:108B0000F80FE00700000000000000000000000077
:108B10000000FE7FFE7F80018001800180018001D6
:108B2000800180018001800180018001800180013D
:108B30008001800100000000000000000000000033
:108B400000000C300C300C300C300C300C300C3081
:108B50000C300C300C300C300C300C300C30181841
:108B6000F81FE00700000000000000000000000007
:108B7000000003600630063006300C180C180C1884
:108B8000180C180C380E30063006700760036003AE
:108B9000C001C00100000000000000000000000053
:108BA00000000360C361C361C3616633663366332B
:108BB0006633663366336C1B6C1B6C1B2C1A3C1EB5
:108BC000380E380E00000000000000000000000019
:108BD00000000FE00C7018303018700C600EC007E9
:108BE00080038003C003E006700C301C18180C30A2
:108BF0000E6007E000000000000000000000000020
:108C0000000003C006600C301C383818300C6006B9
:108C1000E007C003800180018001800180018001A4
:108C20008001800100000000000000000000000042
:108C30000000FC7FFC7F006000300018000C000684
:108C400000038001C0006000300018000C00060026
:108C5000FE7FFE7F0000000000000000000000001A
:108C60000000E003E003600060006000600060005E
:108C700060006000600060006000600060006000F4
:108C800060006000600060006000E003E00300003E
:108C9000000030003000600060006000C000C000D4
:108CA000C000C001800180018001000300030003B7
:108CB00000060006000000000000000000000000A8
:108CC0000000E003E00300030003000300030003CF
:108CD000000300030003000300030003000300037C
:108CE00000030003000300030003E003E0030000AF
:108CF00000000000C001C001600360036003300693
:108D00003006180C180C00000000000000000000E5
:108D10000000000000000000000000000000000053
:108D20000000000000000000000000000000000043
:108D30000000000000000000000000000000000033
:108D40000000FFFFFFFF0000000000000000000027
:108D500000000C000C000C000C000C000C000000CB
:108D60000000000000000000000000000000000003
:108D700000000000000000000000000000000000F3
:108D8000000000000000000000000000F003F807F1
:108D90001C0C0C0C000FF00FF80C0C0C0C0C1C0F26
:108DA000F80FF018000000000000000000000000B4
:108DB000000018001800180018001800D803F80F59
:108DC000380C181818181818181818181818380CFB
:108DD000F80FD803000000000000000000000000B1
:108DE000000000000000000000000000C003F007C9
:108DF000300E180C1800180018001800180C300E4F
:108E0000F007C003000000000000000000000000A8
:108E1000000000180018001800180018C01BF01FF0
:108E2000301C181818181818181818181818301C8A
:108E3000F01FC01B00000000000000000000000048
:108E4000000000000000000000000000C003F00F60
:108E5000300C1818F81FF81F180018003818301CAC
:108E6000F00FC0070000000000000000000000003C
:108E70000000800FC00FC000C000C000F007F00766
:108E8000C000C000C000C000C000C000C000C000E2
:108E9000C000C00000000000000000000000000052
:108EA000000000000000000000000000E00DF80FCE
:108EB000180E0C0C0C0C0C0C0C0C0C0C0C0C180ED6
:108EC000F80FE00D000C0C0C1C06F807F001000078
:108ED000000018001800180018001800D807F80F34
:108EE000381C1818181818181818181818181818DE
:108EF0001818181800000000000000000000000012
:108F00000000C000C000000000000000C000C00061
:108F1000C000C000C000C000C000C000C000C00051
:108F2000C000C000000000000000000000000000C1
:108F30000000C000C000000000000000C000C00031
:108F4000C000C000C000C000C000C000C000C00021
:108F5000C000C000C000C000C000F80078000000E1
:108F600000000C000C000C000C000C000C0C0C069B
:108F70000C038C01CC006C00FC009C018C030C03E6
:108F80000C060C0C000000000000000000000000B7
:108F90000000C000C000C000C000C000C000C00091
:108FA000C000C000C000C000C000C000C000C000C1
:108FB000C000C00000000000000000000000000031
:108FC0000000000000000000000000007C3CFF7E6C
:108FD000C7E383C183C183C183C183C183C183C10B
:108FE00083C183C1000000000000000000000000F9
:108FF0000000000000000000000000009807F80FCB
:10900000381C1818181818181818181818181818BC
:1090100018181818000000000000000000000000F0
:10902000000000000000000000000000C003F00F7E
:10903000300C181818181818181818181818300C98
:10904000F00FC0030000000000000000000000005E
:10905000000000000000000000000000D803F80F2E
:10906000380C181818181818181818181818380C58
:10907000F80FD80318001800180018001800000096
:10908000000000000000000000000000C01BF01FF6
:10909000301C181818181818181818181818301C18
:1090A000F01FC01B0018001800180018001800005E
:1090B000000000000000000000000000B007F00306
:1090C00070003000300030003000300030003000E0
:1090D0003000300000000000000000000000000030
:1090E000000000000000000000000000E003F003AA
:1090F000380E180C3800F003C007000C180C380E9E
:10910000F007E00300000000000000000000000085
:10911000000000008000C000C000C000F007F007A1
:10912000C000C000C000C000C000C000C000C0003F
:10913000C0078007000000000000000000000000E1
:1091400000000000000000000000000018181818BF
:109150001818181818181818181818181818381C6B
:10916000F01FE019000000000000000000000000F7
:109170000000000000000000000000000C18180CA7
:10918000180C180C300630063006600360036003CC
:10919000C001C0010000000000000000000000004D
:1091A000000000000000000000000000C141C141BB
:1091B000C3616363636363633636363636361C1CBD
:1091C0001C1C1C1C0000000000000000000000002F
:1091D0000000000000000000000000001C38381CE7
:1091E000300C600660036003600360036006300CAF
:1091F000381C1C38000000000000000000000000C7
:1092000000000000000000000000000018303018CE
:1092100030187018600C600CE00CC006C0068003AB
:109220008003800380018001C001F0007000000015
:10923000000000000000000000000000FC1FFC1FF8
:10924000000C000600038001C00060003000180020
:10925000FC1FFC1F000000000000000000000000D8
:10926000000000038001C000C000C000C000C000BA
:10927000C00060006000300060004000C000C0001E
:10928000C000C000C000C00080010003000000005A
:109290000000800180018001800180018001800147
:1092A00080018001800180018001800180018001B6
:1092B0008001800180018001800180018001000027
:1092C00000006000C000C0018001800180018001B9
:1092D00080010003000300060003000180018001FB
:1092E0008001800180018001C0006000000000005A
:1092F000000000000000000000000000000000006E
:10930000F010F81F080F000000000000000000002F
:10931000000000000000000000000000000000004D
:10932000000000000000000000000000000000003D
:1093300000000000000000000000002000200020CD
:10934000002000200020002000000020000000007D
:10935000000000500050005000000000000000001D
:1093600000000000000000000000000900090012D9
:10937000007F0012007F0012002400240000000083
:109380000010003800540050005000380014005401
:1093900000540038001000000000803000490049EF
:1093A000004AC032200520092009C010000000003A
:1093B0000000000C00120012001400180025002309
:1093C0000023801D0000000000000040004000401D
:1093D000000000000000000000000000000000008D
:1093E00000000008001000100020002000200020D5
:1093F000002000200010001000000040002000208D
:1094000000100010001000100010001000200020BC
:10941000000000200070002000500000000000004C
:109420000000000000000000000000000000000834
:109430000008007F00080008000000000000000095
:10944000000000000000000000000000000000001C
:10945000000000200020004000000000000000008C
:10946000000000000070000000000000000000008C
:1094700000000000000000000000000000000000EC
:10948000000000200000000000000010001000108C
:1094900000200020002000200040004000000000CC
:1094A0000000001000280044004400440044004430
:1094B00000280010000000000000001000300050E4
:1094C000001000100010001000100010000000003C
:1094D0000000003000480044000400080010002094
:1094E0000040007C00000000000000300048000444
:1094F0000008001000080044004800300000000090
:109500000000000800180018002800280048007C0F
:1095100000080008000000000000003C002000409F
:1095200000700048000400440048003000000000C3
:10953000000000180024004000500068004400446F
:1095400000280010000000000000007C000400085B
:10955000001000100010002000200020000000007B
:1095600000000010002800440028001000280044DB
:109570000028001000000000000000100028004437
:109580000044002C001400040048003000000000DB
:1095900000000000000000200000000000000000AB
:1095A000000000200000000000000000000000207B
:1095B000000000000000000000000020002000402B
:1095C00000000000000400080030004000300008E7
:1095D0000004000000000000000000000000007C0B
:1095E00000000000007C00000000000000000000FF
:1095F00000000000004000200018000400180020B7
:10960000004000000000000000000038006400443A
:10961000000400080010001000000010000000000E
:109620000000800F4010A02EA05120512051205149
:109630002053C04D202040100000000800140014EA
:1096400000140022003E0022004100410000000002
:109650000000003C002200220022003C00220022E8
:109660000022003C000000000000000E001100215C
:1096700000200020002000210011000E000000004A
:109680000000003C002200210021002100210021D7
:109690000022003C000000000000003E00200020EE
:1096A0000020003E002000200020003E00000000BE
:1096B0000000003E002000200020003C0020002090
:1096C00000200020000000000000000E001100211A
:1096D00000200027002100210011000E00000000E2
:1096E00000000021002100210021003F0021002175
:1096F00000210021000000000000002000200020C8
:109700000020002000200020002000200000000099
:1097100000000008000800080008000800080048D1
:109720000048003000000000000000220024002853
:109730000028003800280024002400220000000037
:109740000000002000200020002000200020002039
:109750000020003E000000000000802080318031A9
:109760008031802A802A802A802A802400000000FC
:1097700000000021003100310029002900250023CC
:1097800000230021000000000000000C0012002156
:1097900000210021002100210012000C0000000027
:1097A0000000003C002200220022003C002000209B
:1097B00000200020000000000000000C001200212A
:1097C00000210021002100210016000D00010000F1
:1097D0000000003E002100210021003E0024002264
:1097E00000218020000000000000001C0022002258
:1097F0000020001C000200220022001C00000000CB
:109800000000003E000800080008000800080008EA
:1098100000080008000000000000002100210021D5
:1098200000210021002100210012000C0000000096
:109830000000004100410022002200220014001418
:10984000001400080000000000004044404A402A84
:10985000802A802A802A802A802A001100000000A5
:10986000000000410022001400140008001400143D
:109870000022004100000000000000410022002200
:10988000001400080008000800080008000000009C
:109890000000007E000200040008001000100020FC
:1098A0000040007E0000000000000030002000208A
:1098B00000200020002000200020002000200020A8
:1098C0000000004000400020002000200020002078
:1098D00000100010000000000000006000200020C8
:1098E0000020002000200020002000200020002078
:1098F000000000100028002800280044000000009C
:109900000000000000000000000000000000000057
:109910000000000000000000000000000000007EC9
:1099200000400020000000000000000000000000D7
:1099300000000000000000000000000000000038EF
:1099400000440004003C00440044003C00000000CF
:1099500000000040004000580064004400440044FF
:10996000006400580000000000000000000000300B
:109970000048004000400040004800300000000067
:109980000000000400040034004C00440044004483
:10999000004C00340000000000000000000000380F
:1099A00000440044007C00400044003800000000F7
:1099B00000000060004000E0004000400040004027
:1099C00000400040000000000000000000000034E3
:1099D000004C004400440044004C003400040044A7
:1099E000000000400040005800640044004400446F
:1099F000004400440000000000000040000000405F
:109A000000400040004000400040004000000000D6
:109A100000000040000000400040004000400040C6
:109A2000004000400040004000000040004000486E
:109A30000050006000500050004800480000000046
:109A40000000004000400040004000400040004056
:109A50000040004000000000000000000000005234
:109A6000006D00490049004900490049000000001C
:109A7000000000000000005800640044004400445E
:109A80000044004400000000000000000000003816
:109A9000004400440044004400440038000000003A
:109AA000000000000000005800640044004400442E
:109AB0000064005800400040000000000000003436
:109AC000004C004400440044004C003400040004F6
:109AD0000000000000000050006000400040004016
:109AE00000400040000000000000000000000030C6
:109AF000004800400030000800480030000000002E
:109B000000000040004000E00040004000400040F5
:109B10000040006000000000000000000000004461
:109B20000044004400440044004C003400000000A5
:109B30000000000000000044004400280028002825
:109B40000028001000000000000000000000004994
:109B50000049005500550055005500220000000046
:109B60000000000000000044002800280010002829
:109B70000028004400000000000000000000004435
:109B800000440028002800280010001000100010D9
:109B900000000000000000780008001000200020F5
:109BA00000400078000000000000001000200020AD
:109BB0000020002000400020002000200020002085
:109BC00000000020002000200020002000200020B5
:109BD0000020002000200020000000400020002085
:109BE0000020002000100020002000200020002085
:109BF0000000000000000000007400580000000099
:109C00000000000000000000000000000070005094
:109C10000050005000500050005000700000000044
:109C20000000000000000000000000000000000034
:109C30000000000000000000000000000000100014
:109C400010001000100010001000000010000000B4
:109C5000000000000000280028002800000000008C
:109C600000000000000000000000000000001400E0
:109C700014003E00140028007C002800280000008A
:109C8000000000001000380054005000380014009C
:109C900014005400380010000000000000004400D0
:109CA000A800A800500014001A002A002400000098
:109CB0000000000000002000500050002000E800DC
:109CC0009800980060000000000000000000800084
:109CD0008000800000000000000000000000000084
:109CE0000000000000004000800080008000800034
:109CF00080008000800080000000000000008000E4
:109D00004000400040004000400040004000400053
:109D10000000000000004000E0004000A000000043
:109D20000000000000000000000000000000000033
:109D3000000020002000F8002000200000000000AB
:109D40000000000000000000000000000000000013
:109D50000000000040004000000000000000000083
:109D60000000000000000000C00000000000000033
:109D700000000000000000000000000000000000E3
:109D80000000000040000000000000000000200073
:109D90002000200040004000800080008000000083
:109DA0000000000000006000900090009000900013
:109DB0009000900060000000000000000000200003
:109DC0006000A000200020002000200020000000F3
:109DD0000000000000006000900010001000200053
:109DE00040008000F0000000000000000000600063
:109DF0009000100060001000100090006000000053
:109E000000000000000010003000500050009000E2
:109E1000F8001000100000000000000000007000BA
:109E200040008000E0001000100090006000000082
:109E3000000000000000600090008000A000D00042
:109E40009000900060000000000000000000F000A2
:109E500010002000200020004000400040000000D2
:109E60000000000000006000900090006000900082
:109E70009000900060000000000000000000600002
:109E800090009000B00050001000900060000000B2
:109E90000000000000000000000040000000000082
:109EA0000000000040000000000000000000000072
:109EB00000004000000000000000000040004000E2
:109EC00000000000000000000000100060008000A2
:109ED0006000100000000000000000000000000012
:109EE00000000000F0000000F00000000000000092
:109EF0000000000000000000000080006000100072
:109F00006000800000000000000000000000600011
:109F100090001000200040004000000040000000C1
:109F20000000000000001C0022005B00A500A5004E
:109F3000A500A5009E0041000000000000002000D8
:109F40005000500050005000700088008800000051
:109F5000000000000000F00088008800F000880089
:109F600088008800F00000000000000000003800B9
:109F70004400840080008000840044003800000019
:109F8000000000000000E0009000880088008800C9
:109F900088009000E0000000000000000000F800D1
:109FA00080008000F800800080008000F800000041
:109FB00000000000000078004000400070004000F9
:109FC0004000400040000000000000000000380099
:109FD0004400840080009C0084004400380000009D
:109FE000000000000000880088008800F800880059
:109FF0008800880088000000000000000000800049
:10A0000080008000800080008000800080000000D0
:10A0100000000000000010001000100010001000F0
:10A020009000900060000000000000000000880028
:10A030009000A000E000A0009000900088000000C8
:10A040000000000000008000800080008000800090
:10A0500080008000F000000000000000000082008E
:10A06000C600C600AA00AA00AA00AA00920000002A
:10A070000000000000008400C400A400A4009400BC
:10A0800094008C00840000000000000000003000FC
:10A0900048008400840084008400480030000000F0
:10A0A000000000000000F000880088008800F00038
:10A0B00080008000800000000000000000003000F0
:10A0C00048008400840084008400580034000400A8
:10A0D00000000000000078004400440078005000B8
:10A0E0004800440042000000000000000000700032
:10A0F0008800800070000800880088007000000060
:10A10000000000000000F8002000200020002000D7
:10A11000200020002000000000000000000084005B
:10A120008400840084008400840048003000000023
:10A13000000000000000880088005000500050001F
:10A1400050005000200000000000000000009200BD
:10A15000AA00AA00AA00AA00AA00AA0044000000BF
:10A16000000000000000840048004800300030007B
:10A170004800480084000000000000000000880043
:10A18000500050002000200020002000200000008F
:10A19000000000000000F80008001000200020006F
:10A1A00040008000F8000000000000000000C00037
:10A1B000800080008000800080008000800080009F
:10A1C00000000000000080008000400040004000CF
:10A1D0004000200020000000000000000000C0003F
:10A1E000400040004000400040004000400040006F
:10A1F0000000000000004000A000A000A00000003F
:10A20000000000000000000000000000000000004E
:10A210000000000000000000000000000000F80046
:10A22000000000000000800040000000000000006E
:10A23000000000000000000000000000000000001E
:10A240000000E0001000700090009000700000001E
:10A2500000000000000080008000A000D0009000FE
:10A260009000D000A00000000000000000000000EE
:10A2700000006000900080008000900060000000FE
:10A28000000000000000100010005000B00090001E
:10A290009000B0005000000000000000000000002E
:10A2A000000060009000F00080009000600000005E
:10A2B000000000000000C0008000C000800080009E
:10A2C000800080008000000000000000000000000E
:10A2D00000005000B00090009000B000500010004E
:10A2E00000000000000080008000A000D00090006E
:10A2F000900090009000000000000000000080002E
:10A30000000080008000800080008000800000004D
:10A31000000000000000800000008000800080003D
:10A3200080008000800080000000000000008000AD
:10A3300080009000A000C000A000900090000000ED
:10A34000000000000000800080008000800080008D
:10A35000800080008000000000000000000000007D
:10A360000000A600DA009200920092009200000025
:10A3700000000000000000000000A000D0009000DD
:10A38000900090009000000000000000000000001D
:10A3900000006000900090009000900060000000BD
:10A3A00000000000000000000000A000D0009000AD
:10A3B0009000D000A000800000000000000000001D
:10A3C00000005000B00090009000B000500010005D
:10A3D00000000000000000000000A000C00080009D
:10A3E00080008000800000000000000000000000ED
:10A3F0000000E0009000400020009000600000009D
:10A4000000000000000080008000C000800080008C
:10A4100080008000C000000000000000000000007C
:10A4200000009000900090009000B00050000000EC
:10A4300000000000000000000000880088005000BC
:10A44000500050002000000000000000000000004C
:10A4500000009200AA00AA00AA00AA00440000007E
:10A4600000000000000000000000880050002000F4
:10A4700020005000880000000000000000000000E4
:10A4800000008800500050005000200020002000F4
:10A4900000000000000000000000F000100020009C
:10A4A00040008000F0000000000000000000C0003C
:10A4B000800080008000000080008000800080001C
:10A4C000000000000000800080008000800080000C
:10A4D0008000800080008000000000000000C000BC
:10A4E000400040004000200040004000400040008C
:10A4F000000000000000000000000000E800B000C4
:10A50000000000000000000000000000000000004B
:10A51000E000A000A000A000A000A000E00000005B
:10A520002DE9F04782B00020009000F05BFB00F0C6
:10A530006BFB00F055FB002000F0BFFA009041F2E9
:10A54000180440F23F1540F2023640F2391740F24B
:10A55000371841F2B07940F2022A009849F22031CE
:10A56000884240F0CA804FF40041E52000F0FFFA35
:10A570000121002000F0FBFA00F0A9F900F0A2F997
:10A5800041F2300100F0BAF90021042000F0EFFAA6
:10A590005146082000F0EBFA0021092000F0E7FA0C
:10A5A00000210A2000F0E3FA00210C2000F0DFFA7D
:10A5B00000210D2000F0DBFA00210F2000F0D7FA77
:10A5C00000F092F900F08CF900F086F9002100F01B
:10A5D00091F9142000F06DFB494600F086F94146E0
:10A5E00000F07FF900F0FCFA394600F076F900F04F
:10A5F000F7FA00F07DF91321292000F0B8FA00F0F5
:10A60000EFFA00F05BF90021212000F0B0FA0621FA
:10A61000302000F0ACFA40F20111312000F0A7FA2E
:10A620000321322000F0A3FA4FF48371352000F0AB
:10A630009EFA40F60231362000F099FA3146372072
:10A6400000F095FA40F20771382000F090FA0721E7
:10A65000392000F08CFA4FF4C0613C2000F087FAFA
:10A6600040F20B213D2000F082FA00F023F900F0C7
:10A670001DF900F017F900F001FA4FF41C516020A9
:10A6800000F075FA0121612000F071FA00216A20C2
:10A6900000F06DFA0021802000F069FA002181208D
:10A6A00000F065FA0021822000F061FA0021832089
:10A6B00000F05DFA0021842000F059FA0021852085
:10A6C00000F055FA1021902000F051FA002192205C
:10A6D00000F04DFA0321932000F049FA00F0DDF874
:10A6E0000021972000F043FA0021982000F03FFA63
:10A6F00000F003F940F27311C8E0009849F22531E7
:10A70000884240F0C8800121002000F030FA00F0BB
:10A71000DEF800F0D7F800F0F0F80021042000F097
:10A7200026FA5146082000F022FA0021092000F004
:10A730001EFA00210A2000F01AFA00210C2000F075
:10A7400016FA00210D2000F012FA00210F2000F06F
:10A750000EFA00F0C9F800F0C3F800F0BDF80021CF
:10A7600000F0C8F8142000F0A4FA494600F0BDF843
:10A77000414600F0B6F800F033FA394600F0ADF883
:10A7800000F02EFA00F0B4F81321292000F0EFF9C0
:10A7900000F026FA00F092F80021212000F0E7F9FD
:10A7A0000721302000F0E3F93146312000F0DFF9D5
:10A7B00040F205163146322000F0D9F940F2062762
:10A7C0003946352000F0D3F940F6080841463620D6
:10A7D00000F0CDF93946372000F0C9F940F20451B4
:10A7E000382000F0C4F90721392000F0C0F93146C3
:10A7F0003C2000F0BCF941463D2000F0B8F900F0E3
:10A8000059F800F053F800F04DF800F037F94FF424
:10A810002741602000F0ABF90121612000F0A7F989
:10A8200000216A2000F0A3F90021802000F09FF9A8
:10A830000021812000F09BF90021822000F097F98F
:10A840000021832000F093F90021842000F08FF98B
:10A850000021852000F08BF91021902000F087F96D
:10A860000021922000F083F90321932000F07FF96A
:10A8700000F013F80021972000F079F900219820CA
:10A8800000F075F900F039F840F233110720BDE807
:10A89000FC4700F06CB9BDE8F3874FF48871952050
:10A8A00000F065B90021522000F061B9EF2151207C
:10A8B00000F05DB90021502000F059B9002120209E
:10A8C00000F055B94FF4E061022000F050B94FF4A8
:10A8D0008071012000F04BB90021122000F047B92F
:10A8E0000021112000F043B90021102000F03FB9F1
:10A8F0004FF4E851132000F03AB92146032000F04C
:10A9000036B980B5FFF70CFEDFF8C80300F1080187
:10A91000416001BD01B4DFF8BC03BDF80010018047
:10A9200001B0704701B4DFF8AC03BDF800104180FE
:10A9300001B07047DFF89C1348607047DFF894035C
:10A940004068704770B5044640F23F15DFF88463F5
:10A9500007E020222946204600F067F870688088CA
:10A960002D1AADB2681C80B2716889888842F0DA0D
:10A9700070BD38B5044640F23F11002000F00BF8DE
:10A9800000F0EDF84FF49635204600F010F96D1EFA
:10A99000FAD100F001B910B50C460146FFF78FFF60
:10A9A00021462120BDE8104000F0E1B82DE9F84330
:10A9B0008846914600250446FFF7EDFFDFF8147343
:10A9C00004E000F02CF800F05CF86D1C7868C0889A
:10A9D000854222D200F0C3F8002603E0388800F058
:10A9E000E6F8761C786881888E42EAD239F815201C
:10A9F00080200C2391FBF3F3DB00984040FA06F330
:10AA00001A4201D10D2906D3012000FA06F31A4299
:10AA1000E4D10D29E2D37888E1E7BDE8F183012292
:10AA20000421DFF8B40200F0C0B910B5DFF8A43299
:10AA30005B68203AD2B2DC8862431B6803EB4202B7
:10AA4000BDE81040B2E7F8B504460D4640F23F16A7
:10AA5000DFF8807208E015F8012B31462046FFF739
:10AA6000E4FF78688088361A287830B1B6B2701C56
:10AA700080B2796889888842EDDAF1BD2946532091
:10AA800075E0641C4146E0B285E738B50446002213
:10AA9000FFF7C6FF514D214692E038B504467020BD
:10AAA000FFF7F3FF4D4D0021284600F007FA00F0B4
:10AAB0007AF80028FBD1214667E070B5474C218821
:10AAC0004FF6C77211402180218841F00801218092
:10AAD000FFF7E3FF7320FFF7D8FF052500F037F8F5
:10AAE00000F039F80028FBD1012100F035F80028EA
:10AAF000FAD0204600F0E4F96D1EEFD100F027F8FF
:10AB000000F029F80028FBD1012100F025F80028E9
:10AB1000FAD0204600F0D4F9054600F018F800F00D
:10AB20001AF80028FBD1012100F016F80028FAD00D
:10AB3000204600F0C5F90646FFF771FF20884FF662
:10AB4000C7710840208046EA052080B270BDFF2111
:10AB5000204600F0B3B98021204600F0B3B980B59B
:10AB60002220FFF79AFF7220BDE802408DE738B53A
:10AB70000C46FFF792FF7220FFF787FF00F028F8DE
:10AB800000F011F80028FBD1E1B2284600F096F958
:10AB900000F009F80028FBD1012204214E48BDE84D
:10ABA000384000F002B98021284600F08BB938B552
:10ABB000044600F00DF8FFF7F6FF0028FBD1E1B2E4
:10ABC000284600F07BF9FFF7EEFF0028FBD131BDEE
:10ABD000024D210A284600F071B90000003C0040F7
:10ABE000052066E080B50121082000F089F90420E5
:10ABF00000F04CF8102000F001F801BD8DF80300C2
:10AC000000A9354800F072B810B586B001211120B6
:10AC100000F076F90121314800F0CCF801214FF421
:10AC2000004000F076F94FF4806000F02FF8182013
:10AC30008DF8030000F030F800F033F84FF4805046
:10AC400000F031F8264C204600F0E0F80020ADF886
:10AC500004004FF48270ADF806000020ADF8080043
:10AC60000220ADF80A000120ADF80C004FF400708E
:10AC7000ADF80E000020049001A9204600F0F2F883
:10AC80000121204600F010F906B010BDADF800001B
:10AC900003208DF802007047124C00A9204600F0F6
:10ACA00025B84FF40060ADF8000000A9204600F080
:10ACB0001DB801B481B00020009001980A494843B2
:10ACC00001E00098401E009000980028F9D102B0E1
:10ACD0007047000064000020000C014000112000BB
:10ACE000003C004000100140A08601002DE9F04129
:10ACF0000022CC7804F00F03E40644BF8C78234391
:10AD00000C8801250F26E7B217B3D0F800C005FA6A
:10AD100002F7BE460EEA0408F04514D14FEA820E4F
:10AD200006FA0EF82CEA080C03FA0EFE4EEA0C0C9A
:10AD300091F803E0BEF1280F08BF476103D0BEF1D0
:10AD4000480F08BF0761521C082AE0D3C0F800C0B2
:10AD50004FF48072944226D3D0F804C0002202F14E
:10AD6000080705FA07F7BE460EEA0408F04515D1B4
:10AD70004FEA820E06FA0EF82CEA080C03FA0EFED1
:10AD80004EEA0C0C91F803E0BEF1280F08BF4761B2
:10AD900091F803E0BEF1480F08BF0761521C082A72
:10ADA000DDD3C0F804C0BDE8F0810AB1016170478D
:10ADB0004161704770B5144A00284CBF946914680B
:10ADC000C0F3034583B2460D3601B34000F440168C
:10ADD000B6F5401F06D124F07064156825F0706543
:10ADE000156008E0C60243BF032606FA05F5AC432A
:10ADF0009C4344F0706401B11C43002801D5946168
:10AE000070BD146070BD00000400014080B523498E
:10AE100088420BD101214FF4805000F083F80021CB
:10AE20004FF48050BDE8044000F07CB81C498842D3
:10AE300008D101214FF4804000F07DF800214FF44B
:10AE400080400AE0174988420BD101214FF40040AD
:10AE500000F071F800214FF40040BDE8044000F01C
:10AE60006AB801BD028802F441520B881A434B882C
:10AE70001A438B881A43CB881A430B891A434B8990
:10AE80001A438B891A43CB891A430280828B4FF273
:10AE9000FF731A408283098A0182704700300140A3
:10AEA00000380040003C00400029018812BF41F0FA
:10AEB00040014FF6BF721140018070478181704799
:10AEC0008089704700220089084218BF012210467D
:10AED000704710B450F8041B81B102681218001DAD
:10AEE00050F8043BDC0744BFA9F10104E31852F811
:10AEF000044B43F8044B091FF9D1EBE710BC704732
:10AF0000114A0029116814BF084321EA00001060AB
:10AF100070470E4A0029116814BF084321EA000057
:10AF2000106070470A4A0029116814BF084321EADB
:10AF3000000010607047074A0029116814BF0843D9
:10AF400021EA000010607047181002401C100240F7
:10AF50000C1002401010024080B500F005F80020EF
:10AF6000BDE80240FFF705BD94484FF6FF718180B0
:10AF70000021C180018141818181C1810121017054
:10AF8000002141708170C1700182704730B587B077
:10AF90000446002500E06D1C10F8011B0029FAD1C1
:10AFA0001B2D28BF1A2520221B2100A800F00EF916
:10AFB000002000AA06E0C5F11B0100EB5101035D72
:10AFC0008B54401CA842F6D30020FFF7D2FC7C48EB
:10AFD000FFF7B0FCFFF7B2FC04464FF6FF70FFF737
:10AFE00099FC1F20FFF79EFC0020FFF7ABFC00A997
:10AFF000E088C0B2FFF727FDE0884006000EFFF7AB
:10B00000A1FC0020FFF78EFC6E48FFF793FC07B011
:10B0100030BD30B58BB004461F20FFF783FCFFF72F
:10B020008DFC0546002003E000AA20238354401C29
:10B030004FF4A071AA8891FBF2F2C0B2531E98425D
:10B04000F2DB00A81018002100F8011C00A9E88814
:10B05000C0F1F000C0B2FFF7F6FC2146E888C0F16D
:10B06000F000C0B2FFF7EFFC0020FFF75BFC0BB075
:10B0700030BD2DE9F0410446FFF760FC4F4DA97843
:10B08000002957D16978012907D1E9896981A989FE
:10B09000298100216970E9702982E9883426DFF866
:10B0A00028814FF4A072838892FBF3F3994201DA6E
:10B0B0000A2C38D16B892F899F4218D395F800E06C
:10B0C000BEF1000F07D17F1C2F81BFB2092F0ED117
:10B0D00000272F810BE000272F7008E0B5F806C08D
:10B0E00020270CF80E700CF10107EF80491C06FBBD
:10B0F000038EB0F804C092FBFCFC6145EED3A88837
:10B10000AEF832000020E88000F017F86889401C93
:10B11000688180B2092804D100206881012028813B
:10B1200028700A2C06D0E888698906FB01814454FE
:10B13000401CE8802046BDE8F0812DE9F843002757
:10B14000FFF7FCFB04461D4E308971893425DFF87A
:10B150007880082911D281420FD305FB0180408EEF
:10B16000FFF7D8FB708905FB0081C01CE2885043C3
:10B17000C0B2BDE8F443FFF766BC814238BF093175
:10B18000A1F1080086B2F019092190FBF1F101EB61
:10B19000C101401A80B205FB0089B9F83200FFF7FF
:10B1A000B9FB4946F81CE2885043C0B2FFF74BFC9C
:10B1B0007F1C092FE7DBBDE8F1830000A802002017
:10B1C000740000207C0000208400002062F30F2225
:10B1D00062F31F4200B500BF130096469446103933
:10B1E00028BFA0E80C50FAD85FEA417C28BF0CC009
:10B1F00048BF40F8042BC90728BF20F8022B48BFDE
:10B2000000F8012B00BD50F8041B61B150F8042B6D
:10B21000D30744BFA9F101039A18002342F8043B65
:10B22000091FFAD1EFE7704780B5FFF76AFBFFF718
:10B2300093FE0FF2D000FFF7A9FE2D484FF6FF71E5
:10B2400001800FF2D80000F08BF80FF2F800FFF742
:10B25000E0FE002000F096F8012000F093F80220B4
:10B2600000F090F8032000F08DF8224800684FF4B9
:10B270007A71B0FBF1F0B0F1807F2AD21E49000252
:10B28000000A401E48601D48F022027000208860BD
:10B2900007200860002000F091F8012000F08EF8EF
:10B2A000022000F08BF8032000F088F8C82000F09E
:10B2B00011F8002000F082F8012000F07FF8022051
:10B2C00000F07CF8032000F079F8C82000F002F8C4
:10B2D000E0E7FEE70A49086008680028FCD17047EB
:10B2E0000748016811B10168491E016070470000FC
:10B2F000AC0200205000002010E000E023ED00E050
:10B30000BC0200202042696E61727920696D61671C
:10B31000652074656D706C61746520003E20537902
:10B32000737469636B2074656D706C6174652065FE
:10B3300078616D706C6520737461727465642E0A37
:10B3400000000000202020202042696E61727920D8
:10B35000696D6167652074656D706C61746520004E
:10B360000EB400B582B003A9009100AB02460121E2
:10B37000034878440A3000F03FF806BC5DF810FB43
:10B380008503000010B582B0044601210FF2580079
:10B3900050F82400FFF7B4FD0FF2440030F8140019
:10B3A000ADF8000010208DF8030003208DF8020096
:10B3B00000A9DFF8280050F824000BE0DFF81C108B
:10B3C00051F82010CA680FF2180333F810005040EB
:10B3D000C8607047FFF78AFC13BD000054000020CE
:10B3E0008000002008001000200000002000000065
:10B3F00020000000200000002DE9F04784B08146C5
:10B40000884614461E460DF1000A04E014F8011B9C
:10B410004046C8478046207810B904B0BDE8F087A0
:10B420002528F3D1641C14F8015B252D6FD0582D0D
:10B4300051D0632D0ED0642D18BF692D10D06F2D03
:10B4400049D0702D4CD0732D50D0752D18BF782D4C
:10B4500041D0E0E73068011D31600168C9B2D7E72B
:10B460003068011D31600768002F03D52D2140464B
:10B47000C84780466F2D08BF082105D045F0200041
:10B48000782814BF0A2110210B203A46642D02D1DE
:10B49000002F48BF5242431E1846B2FBF1FC01FB8D
:10B4A0001C223032D2B23A2A24BFA5F1510E724486
:10B4B00003F80A2062460AB10128ECDAC0F10B0554
:10B4C00000A947184046002DA4D017F8011BC84713
:10B4D0006D1EFAD19EE73068011D31600768C9E72B
:10B4E0003068011D316007687825C3E73068011DA9
:10B4F00031600568284600F00DF807464046002FE9
:10B5000088D015F8011BC8477F1EFAD182E7252194
:10B510007EE7000000F10103810704D010F8011B51
:10B5200089B18107FAD10268B2F10131914311F07A
:10B53000803F04BF50F8042FF6E710F8011B11B14B
:10B5400010F8011BFBE7C01A7047000082B04248A8
:10B55000016841F0010101604168404A11404160C9
:10B5600001683F4A11400160016821F480210160B7
:10B57000416821F4FE014160016821F0A0510160A1
:10B580004FF47F0181600021C1624FF41F0181608F
:10B59000002101910091016841F48031016001684E
:10B5A00001F4003100910199491C0191009919B9E8
:10B5B0000199B1F5A06FF2D10168490C01F00101C8
:10B5C00000910099012941D126490A6842F01002F0
:10B5D0000A600A68920892000A600A6842F0020251
:10B5E0000A604168416041684160416841F480619E
:10B5F0004160C16A1C4A1140C162C16A41F4833191
:10B6000041F04401C162016841F08061016001685C
:10B610000901FCD5416821F47C114160416841F485
:10B62000E8114160016841F08071016001688901A1
:10B63000FCD54168890889004160416841F00201F8
:10B640004160416801F00C010829FAD10748084916
:10B65000016002B070470000001002400000FFF0DF
:10B66000FFFFF6FE0020024000F0FEFF08ED00E0C4
:10B670000080000810B5084979441C31074C7C440F
:10B680001A34A14206D0081D0A685118884701469D
:10B69000A142F8D110BD00BF080000002800000042
:10B6A00067FBFFFF3C020000840000200000000058
:10B6B00023F8FFFF84000000B80100000000002014
:10B6C0000000000000F009F8002801D0FFF7D2FFC9
:10B6D0000020FFF7A9FD00F002F80120704700F0FC
:10B6E00001B800000746384600F002F8FBE700000A
:10B6F00080B5C046C046024A11001820ABBEFBE729
:10B700002600020038B504460D46284600F006F82B
:10B71000A84218BF0024204632BD00000149FFF7AF
:10B72000A8BC00BF000000207047FEE7FEE7FEE770
:10B73000FEE7704770477047FFF7D2BD014880476A
:10B74000014800474DB500084DB70008C046C04647
:10B75000C046C046FFF7B6FFFFF7E6BFFFF7E5BFFD
:10B76000FFF7E4BFFFF7E3BFFFF7E2BFFFF7E1BF7B
:10B77000FFF7E0BFFFF7DFBFFFF7DEBFFFF7FEBF5A
:10B78000FFF7FEBFFFF7FEBFFFF7FEBFFFF7FEBFED
:10B79000FFF7FEBFFFF7FEBFFFF7FEBFFFF7FEBFDD
:10B7A000FFF7FEBFFFF7FEBFFFF7FEBFFFF7FEBFCD
:10B7B000FFF7FEBFFFF7FEBFFFF7FEBFFFF7FEBFBD
:10B7C000FFF7FEBFFFF7FEBFFFF7FEBFFFF7FEBFAD
:10B7D000FFF7FEBFFFF7FEBFFFF7FEBFFFF7FEBF9D
:10B7E000FFF7FEBFFFF7FEBFFFF7FEBFFFF7FEBF8D
:10B7F000FFF7FEBFFFF7FEBFFFF7FEBFFFF7FEBF7D
:10B80000FFF7FEBFFFF7FEBFFFF7FEBFFFF7FEBF6C
:10B81000FFF7FEBFFFF7FEBFFFF7FEBFFFF7FEBF5C
:10B82000FFF7FEBFFFF7FEBFFFF7FEBFFFF7FEBF4C
:10B83000FFF7FEBFFFF7FEBFFFF7FEBFFFF7FEBF3C
:10B84000FFF7FEBFFFF7FEBFFFF7FEBFFFF7FEBF2C
:10B85000FFF7FEBFFFF7FEBFFFF7FEBFFFF7FEBF1C
:10B86000FFF7FEBFFFF7FEBFFFF7FEBFFFF7FEBF0C
:10B870000204010158020020A80200205802002002
:10B8800058020020580200203D0000202400002023
:10B8900000000000000000000000000000000000A8
:10B8A0000000000000000000000000000000000098
:10B8B0000000000000000000010203040607080960
:10B8C00000A24A0400140140001401400014014089
:10B8D000001401400000FFFF00000000508100083C
:10B8E00010001800209300080C000C00209C000899
:04B8F00008000C0040
:040000050800B74DEB
:00000001FF
