:020000040800F2
:10C00000C00A00201DF5000809F500080BF500081E
:10C010000DF500080FF5000811F5000800000000FC
:10C0200000000000000000000000000013F5000800
:10C0300015F500080000000017F5000819F50008C4
:10C040005DF5000861F5000865F5000869F5000870
:10C050006DF5000871F5000875F5000879F5000820
:10C060007DF5000881F5000885F5000889F50008D0
:10C070008DF5000891F5000895F5000899F5000880
:10C080009DF50008A1F50008A5F50008A9F5000830
:10C09000ADF50008B1F50008B5F50008B9F50008E0
:10C0A000BDF50008C1F50008C5F50008C9F5000890
:10C0B000CDF50008D1F50008D5F50008D9F5000840
:10C0C000DDF50008E1F50008E5F50008E9F50008F0
:10C0D000EDF50008F1F50008F5F50008F9F50008A0
:10C0E000FDF5000801F6000805F6000809F600084D
:10C0F0000DF6000811F6000815F6000819F60008FC
:10C100001DF6000821F6000825F6000829F60008AB
:10C110002DF6000831F6000835F6000839F600085B
:10C120003DF6000841F6000845F6000849F600080B
:10C130004DF6000851F6000855F6000859F60008BB
:10C140005DF6000861F6000865F6000869F600086B
:10C150006DF6000871F6000875F6000879F600081B
:10C160007DF6000881F6000885F6000889F60008CB
:10C170008DF6000891F6000895F6000899F600087B
:10C180009DF6000800000000000000000000000014
:10C19000000000000000000000000000000000009F
:10C1A000000000000000000000000000000000008F
:10C1B00000000000000080018001800180018001FA
:10C1C0008001800180018001800180018001800167
:10C1D000000000008001800100000000000000005D
:10C1E0000000000000000000CC00CC00CC00CC001F
:10C1F000CC00CC00000000000000000000000000A7
:10C20000000000000000000000000000000000002E
:10C21000000000000000000000000000000000001E
:10C22000600C600C600C30063006FE1FFE1F3006EE
:10C2300038071803FE1FFE1F180318038C018C011A
:10C240008C01000000008000E003F80F9C0E8C1CA5
:10C250008C188C009800F801E007800E801C8C1868
:10C260008C189C18B80CF00FE003800080000000D0
:10C27000000000000000000000000E181B0C110C54
:10C2800011061106110311039B018E01C038C06C09
:10C2900060446044304430441844186C0C3800004A
:10C2A000000000000000E001F0033807180618063F
:10C2B0003003F001F000F8009C310E33061E061C1E
:10C2C000061C063FFC73F021000000000000000087
:10C2D00000000000000000000C000C000C000C002E
:10C2E0000C000C0000000000000000000000000036
:10C2F000000000000000000000000000000000003E
:10C30000000000000000000200038001C000C00027
:10C31000600060003000300030003000300030003D
:10C320003000300060006000C000C00080010003E9
:10C3300000020000000020006000C00080018001B9
:10C3400000030003000600060006000600060006C3
:10C35000000600060003000380018001C0006000A9
:10C3600020000000000000000000000000000000AD
:10C37000C000C000D806F807E0013003380700000D
:10C3800000000000000000000000000000000000AD
:10C39000000000000000000000000000000000009D
:10C3A00080018001800180018001FC3FFC3F800111
:10C3B0008001800180018001000000000000000079
:10C3C000000000000000000000000000000000006D
:10C3D000000000000000000000000000000000005D
:10C3E00000000000000080018001000100018000C9
:10C3F000000000000000000000000000000000003D
:10C40000000000000000000000000000E007E0075E
:10C41000000000000000000000000000000000001C
:10C42000000000000000000000000000000000000C
:10C4300000000000000000000000000000000000FC
:10C44000000000000000C000C0000000000000006C
:10C45000000000000000000C000C000600060006B2
:10C460000003000300038003800180018001C000FD
:10C47000C000C0006000600000000000000000007C
:10C48000000000000000E003F007380E180C0C1844
:10C490000C180C180C180C180C180C180C180C187C
:10C4A000180C380EF007E003000000000000000048
:10C4B00000000000000000018001C001F0019801AF
:10C4C000880180018001800180018001800180015C
:10C4D0008001800180018001000000000000000058
:10C4E000000000000000E003F80F180C0C180C18F6
:10C4F00000180018000C000600038001C000600056
:10C5000030001800FC1FFC1F0000000000000000AD
:10C51000000000000000E001F807180E0C0C0C0CE5
:10C52000000C0006C003C007000C001800180C180F
:10C530000C18180CF807E0030000000000000000D1
:10C54000000000000000000C000E000F000F800D26
:10C55000C00C600C600C300C180C0C0CFC3FFC3F49
:10C56000000C000C000C000C00000000000000009B
:10C57000000000000000F80FF80F180018000C0071
:10C58000EC03FC071C0E001C0018001800180C1807
:10C590001C0C180EF807E00300000000000000006B
:10C5A000000000000000C007F00F381C1818180029
:10C5B0000C00CC03EC0F3C0E1C1C0C180C180C18B7
:10C5C000181C380EF007E003000000000000000017
:10C5D000000000000000FC1FFC1F000C000600060D
:10C5E000000380038001C001C000E0006000600023
:10C5F000700030003000300000000000000000003B
:10C60000000000000000E003F007380E180C180CC2
:10C61000180C3806F007F007180C0C180C180C183A
:10C620000C18380CF80FE0030000000000000000B8
:10C63000000000000000E003F007380E1C0C0C188E
:10C640000C180C181C1C381EF81BE0190018000CE4
:10C65000000C1C0EF807F0010000000000000000B4
:10C6600000000000000000000000000000000000CA
:10C6700080018001000000000000000000000000B8
:10C6800000000000800180010000000000000000A8
:10C69000000000000000000000000000000000009A
:10C6A0008001800100000000000000000000000088
:10C6B00000000000800180010001000180000000F6
:10C6C000000000000000000000000000000000006A
:10C6D000000000000010001C800FE003F8001800AC
:10C6E000F800E003800F001C0010000000000000B4
:10C6F000000000000000000000000000000000003A
:10C7000000000000F81F000000000000F81F0000FB
:10C710000000000000000000000000000000000019
:10C720000000000000000000000000000000000009
:10C730000000000008003800F001C007001F0018CA
:10C74000001FC007F00138000800000000000000D2
:10C75000000000000000E003F80F180C0C180C1883
:10C760000018000C000600038001C000C000C000DB
:10C7700000000000C000C000000000000000000039
:10C780000000000000000000E00718180420C22983
:10C79000224A114409440944094409221113E20CB4
:10C7A000024004201818E00700000000000000000C
:10C7B00000000000000080038003C006C006C00621
:10C7C000600C600C301830183018F83FF83F1C70BF
:10C7D0000C600C6006C006C00000000000000000F5
:10C7E000000000000000FC03FC0F0C0C0C180C18DF
:10C7F0000C180C0CFC07FC0F0C180C300C300C3017
:10C800000C300C18FC1FFC070000000000000000AA
:10C81000000000000000C007F01F38381C300C700A
:10C820000660060006000600060006000600066018
:10C830000C701C30F01FE00700000000000000003A
:10C84000000000000000FE03FE0F060E061806188A
:10C850000630063006300630063006300630061840
:10C860000618060EFE0FFE03000000000000000088
:10C87000000000000000FC3FFC3F0C000C000C001E
:10C880000C000C00FC1FFC1F0C000C000C000C002A
:10C890000C000C00FC3FFC3F00000000000000000A
:10C8A000000000000000F83FF83F180018001800D2
:10C8B00018001800F81FF81F1800180018001800BA
:10C8C0001800180018001800000000000000000008
:10C8D000000000000000E00FF83F3C780E6006E02A
:10C8E00007C00300030003FE03FE03C007C006C029
:10C8F0000EC03CF0F83FE00F000000000000000018
:10C900000000000000000C300C300C300C300C30FB
:10C910000C300C30FC3FFC3F0C300C300C300C3039
:10C920000C300C300C300C30000000000000000017
:10C930000000000000008001800180018001800172
:10C9400080018001800180018001800180018001DF
:10C9500080018001800180010000000000000000D3
:10C9600000000000000000060006000600060006A9
:10C97000000600060006000600060006000618066F
:10C9800018063807F003E001000000000000000076
:10C9900000000000000006300618060C060606031C
:10C9A0008601C60066007600DE008E0106030606DC
:10C9B000060C0618063006600000000000000000AB
:10C9C00000000000000018001800180018001800EF
:10C9D0001800180018001800180018001800180097
:10C9E00018001800F81FF81F0000000000000000E9
:10C9F0000000000000000EE01EF01EF01EF036D811
:10CA000036D836D836D866CC66CC66CCC6C6C6C64E
:10CA1000C6C6C6C686C386C300000000000000006C
:10CA20000000000000000C301C303C303C306C300A
:10CA30006C30CC30CC308C310C330C330C360C36A3
:10CA40000C3C0C3C0C380C300000000000000000D6
:10CA5000000000000000E007F81F1C380E700660A0
:10CA600003C003C003C003C003C003C003C006600B
:10CA70000E701C38F81FE0070000000000000000E6
:10CA8000000000000000FC0FFC1F0C380C300C30C4
:10CA90000C300C300C18FC1FFC070C000C000C00B8
:10CAA0000C000C000C000C00000000000000000056
:10CAB000000000000000E007F81F1C380E70066040
:10CAC00003E003C003C003C003C003C007E0066364
:10CAD0000E3F1C3CF83FE0F700C0000000000000E3
:10CAE000000000000000FE0FFE1F06380630063072
:10CAF00006300638FE1FFE0706030606060C06185B
:10CB00000618063006300660000000000000000035
:10CB1000000000000000E003F80F1C0C0C180C18BB
:10CB20000C001C00F803E00F001E00380630063031
:10CB30000E301C1CF80FE007000000000000000091
:10CB4000000000000000FE7FFE7F80018001800168
:10CB500080018001800180018001800180018001CD
:10CB600080018001800180010000000000000000C1
:10CB70000000000000000C300C300C300C300C3089
:10CB80000C300C300C300C300C300C300C300C30C5
:10CB90000C301818F81FE00700000000000000002B
:10CBA00000000000000003600630063006300C185C
:10CBB0000C180C18180C180C380E300630067007BC
:10CBC00060036003C001C00100000000000000001D
:10CBD0000000000000000360C361C361C3616633ED
:10CBE000663366336633663366336C1B6C1B6C1BB3
:10CBF0002C1A3C1E380E380E000000000000000009
:10CC00000000000000000FE00C7018303018700CAD
:10CC1000600EC00780038003C003E006700C301C68
:10CC200018180C300E6007E0000000000000000043
:10CC300000000000000003C006600C301C383818EB
:10CC4000300C6006E007C003800180018001800194
:10CC500080018001800180010000000000000000D0
:10CC6000000000000000FC7FFC7F00600030001826
:10CC7000000C000600038001C000600030001800B6
:10CC80000C000600FE7FFE7F000000000000000098
:10CC9000000000000000E003E003600060006000AE
:10CCA0006000600060006000600060006000600084
:10CCB0006000600060006000600060006000E003F1
:10CCC000E003000000003000300060006000600001
:10CCD000C000C000C000C0018001800180010003CD
:10CCE0000003000300060006000000000000000032
:10CCF000000000000000E003E00300030003000365
:10CD0000000300030003000300030003000300030B
:10CD10000003000300030003000300030003E0031B
:10CD2000E003000000000000C001C00160036003D8
:10CD3000600330063006180C180C000000000000DC
:10CD400000000000000000000000000000000000E3
:10CD500000000000000000000000000000000000D3
:10CD600000000000000000000000000000000000C3
:10CD7000000000000000FFFFFFFF000000000000B7
:10CD80000000000000000C000C000C000C000C0067
:10CD90000C00000000000000000000000000000087
:10CDA0000000000000000000000000000000000083
:10CDB0000000000000000000000000000000000073
:10CDC000F003F8071C0C0C0C000FF00FF80C0C0C07
:10CDD0000C0C1C0FF80FF018000000000000000001
:10CDE00000000000000018001800180018001800CB
:10CDF000D803F80F380C181818181818181818181D
:10CE00001818380CF80FD8030000000000000000CC
:10CE10000000000000000000000000000000000012
:10CE2000C003F007300E180C180018001800180086
:10CE3000180C300EF007C0030000000000000000D6
:10CE4000000000000000001800180018001800186A
:10CE5000C01BF01F301C18181818181818181818AC
:10CE60001818301CF01FC01B00000000000000005C
:10CE700000000000000000000000000000000000B2
:10CE8000C003F00F300C1818F81FF81F1800180016
:10CE90003818301CF00FC007000000000000000030
:10CEA000000000000000800FC00FC000C000C000E4
:10CEB000F007F007C000C000C000C000C000C00004
:10CEC000C000C000C000C000000000000000000062
:10CED0000000000000000000000000000000000052
:10CEE000E00DF80F180E0C0C0C0C0C0C0C0C0C0CB0
:10CEF0000C0C180EF80FE00D000C0C0C1C06F807BB
:10CF0000F0010000000018001800180018001800B8
:10CF1000D807F80F381C18181818181818181818E7
:10CF20001818181818181818000000000000000041
:10CF3000000000000000C000C00000000000000071
:10CF4000C000C000C000C000C000C000C000C000E1
:10CF5000C000C000C000C0000000000000000000D1
:10CF6000000000000000C000C00000000000000041
:10CF7000C000C000C000C000C000C000C000C000B1
:10CF8000C000C000C000C000C000C000C000F80069
:10CF90007800000000000C000C000C000C000C00DD
:10CFA0000C0C0C060C038C01CC006C00FC009C01EA
:10CFB0008C030C030C060C0C0000000000000000A9
:10CFC000000000000000C000C000C000C000C000A1
:10CFD000C000C000C000C000C000C000C000C00051
:10CFE000C000C000C000C000000000000000000041
:10CFF0000000000000000000000000000000000031
:10D000007C3CFF7EC7E383C183C183C183C183C1ED
:10D0100083C183C183C183C1000000000000000000
:10D020000000000000000000000000000000000000
:10D030009807F80F381C1818181818181818181806
:10D040001818181818181818000000000000000020
:10D0500000000000000000000000000000000000D0
:10D06000C003F00F300C18181818181818181818D2
:10D070001818300CF00FC003000000000000000082
:10D0800000000000000000000000000000000000A0
:10D09000D803F80F380C181818181818181818187A
:10D0A0001818380CF80FD8031800180018001800CA
:10D0B0001800000000000000000000000000000058
:10D0C000C01BF01F301C181818181818181818183A
:10D0D0001818301CF01FC01B00180018001800188A
:10D0E0000018000000000000000000000000000028
:10D0F000B007F00370003000300030003000300026
:10D10000300030003000300000000000000000005F
:10D11000000000000000000000000000000000000F
:10D12000E003F003380E180C3800F003C007000CC1
:10D13000180C380EF007E0030000000000000000AB
:10D1400000000000000000008000C000C000C0001F
:10D15000F007F007C000C000C000C000C000C00061
:10D16000C000C000C00780070000000000000000F1
:10D1700000000000000000000000000000000000AF
:10D18000181818181818181818181818181818181F
:10D190001818381CF01FE019000000000000000003
:10D1A000000000000000000000000000000000007F
:10D1B0000C18180C180C180C3006300630066003DA
:10D1C00060036003C001C001000000000000000017
:10D1D000000000000000000000000000000000004F
:10D1E000C141C141C36163636363636336363636ED
:10D1F00036361C1C1C1C1C1C00000000000000001B
:10D20000000000000000000000000000000000001E
:10D210001C38381C300C6006600360036003600338
:10D220006006300C381C1C380000000000000000B4
:10D2300000000000000000000000000000000000EE
:10D240001830301830187018600C600CE00CC006F4
:10D25000C00680038003800380018001C001F000CC
:10D26000700000000000000000000000000000004E
:10D27000FC1FFC1F000C000600038001C0006000C2
:10D2800030001800FC1FFC1F000000000000000020
:10D2900000000000000000038001C000C000C000CA
:10D2A000C000C000C00060006000300060004000AE
:10D2B000C000C000C000C000C000C000800100036A
:10D2C00000000000000080018001800180018001D9
:10D2D0008001800180018001800180018001800146
:10D2E0008001800180018001800180018001800136
:10D2F0008001000000006000C000C00180018001CA
:10D30000800180018001000300030006000300018A
:10D31000800180018001800180018001C0006000E7
:10D3200000000000000000000000000000000000FD
:10D3300000000000F010F81F080F000000000000BF
:10D3400000000000000000000000000000000000DD
:10D3500000000000000000000000000000000000CD
:10D36000000000000000000000000000000000209D
:10D3700000200020002000200020002000000020CD
:10D3800000000000000000500050005000000000AD
:10D390000000000000000000000000000000000984
:10D3A00000090012007F0012007F001200240024F8
:10D3B00000000000001000380054005000500038F9
:10D3C00000140054005400380010000000008030A9
:10D3D00000490049004AC032200520092009C01038
:10D3E000000000000000000C0012001200140018E1
:10D3F000002500230023801D0000000000000040E5
:10D40000004000400000000000000000000000009C
:10D4100000000000000000080010001000200020A4
:10D42000002000200020002000100010000000401C
:10D43000002000200010001000100010001000104C
:10D44000002000200000002000700020005000009C
:10D4500000000000000000000000000000000000CC
:10D46000000000080008007F00080008000000001D
:10D4700000000000000000000000000000000000AC
:10D48000000000000000002000200040000000001C
:10D49000000000000000000000700000000000001C
:10D4A000000000000000000000000000000000007C
:10D4B000000000000000002000000000000000103C
:10D4C000001000100020002000200020004000403C
:10D4D0000000000000000010002800440044004448
:10D4E000004400440028001000000000000000106C
:10D4F000003000500010001000100010001000104C
:10D500000000000000000030004800440004000853
:10D51000001000200040007C0000000000000030EF
:10D5200000480004000800100008004400480030D3
:10D530000000000000000008001800180028002863
:10D540000048007C00080008000000000000003CCB
:10D5500000200040007000480004004400480030F3
:10D560000000000000000018002400400050006887
:10D570000044004400280010000000000000007C6F
:10D5800000040008001000100010002000200020FF
:10D5900000000000000000100028004400280010D7
:10D5A00000280044002800100000000000000010C7
:10D5B000002800440044002C0014000400480030FF
:10D5C000000000000000000000000020000000003B
:10D5D000000000000000002000000000000000002B
:10D5E00000000020000000000000000000000020FB
:10D5F000002000400000000000040008003000404F
:10D6000000300008000400000000000000000000DE
:10D610000000007C00000000007C00000000000012
:10D62000000000000000000000400020001800047E
:10D63000001800200040000000000000000000383A
:10D6400000640044000400080010001000000010F6
:10D65000000000000000800F4010A02EA0512051BB
:10D66000205120512053C04D2020401000000008C0
:10D670000014001400140022003E0022004100416A
:10D68000000000000000003C002200220022003CBC
:10D69000002200220022003C000000000000000EDA
:10D6A0000011002100200020002000210011000EA8
:10D6B000000000000000003C0022002100210021A9
:10D6C000002100210022003C000000000000003E7C
:10D6D000002000200020003E002000200020003E0E
:10D6E000000000000000003E002000200020003C60
:10D6F0000020002000200020000000000000000E9C
:10D700000011002100200027002100210011000E3F
:10D710000000000000000021002100210021003F46
:10D720000021002100210021000000000000002055
:10D7300000200020002000200020002000200020E9
:10D7400000000000000000080008000800080008B1
:10D7500000080048004800300000000000000022DF
:10D76000002400280028003800280024002400227B
:10D770000000000000000020002000200020002009
:10D78000002000200020003E00000000000080205B
:10D79000803180318031802A802A802A802A80242A
:10D7A00000000000000000210031003100290029A4
:10D7B0000025002300230021000000000000000CD1
:10D7C0000012002100210021002100210012000C84
:10D7D000000000000000003C002200220022003C6B
:10D7E0000020002000200020000000000000000CAD
:10D7F0000012002100210021002100210016000D4F
:10D80000000100000000003E002100210021003E38
:10D810000024002200218020000000000000001CE5
:10D82000002200220020001C000200220022001C16
:10D83000000000000000003E00080008000800088A
:10D840000008000800080008000000000000002197
:10D850000021002100210021002100210012000CE4
:10D8600000000000000000410041002200220022D0
:10D8700000140014001400080000000000004044E0
:10D88000404A402A802A802A802A802A802A001141
:10D8900000000000000000410022001400140008F5
:10D8A00000140014002200410000000000000041AC
:10D8B00000220022001400080008000800080008E8
:10D8C000000000000000007E0002000400080010BC
:10D8D000001000200040007E00000000000000302A
:10D8E0000020002000200020002000200020002038
:10D8F0000020002000000040004000200020002008
:10D900000020002000100010000000000000006057
:10D910000020002000200020002000200020002007
:10D9200000200020000000100028002800280044EB
:10D9300000000000000000000000000000000000E7
:10D9400000000000000000000000000000000000D7
:10D950000000007E004000200000000000000000E9
:10D9600000000000000000000000000000000000B7
:10D970000000003800440004003C00440044003C27
:10D980000000000000000040004000580064004417
:10D990000044004400640058000000000000000043
:10D9A00000000030004800400040004000480030C7
:10D9B000000000000000000400040034004C00449B
:10D9C00000440044004C003400000000000000004F
:10D9D0000000003800440044007C0040004400384F
:10D9E0000000000000000060004000E00040004037
:10D9F0000040004000400040000000000000000027
:10DA000000000034004C004400440044004C00344A
:10DA1000000400440000004000400058006400443E
:10DA200000440044004400440000000000000040A6
:10DA30000000004000400040004000400040004026
:10DA400000000000000000400000004000400040D6
:10DA50000040004000400040004000400000004006
:10DA6000004000480050006000500050004800484E
:10DA70000000000000000040004000400040004066
:10DA80000040004000400040000000000000000096
:10DA900000000052006D004900490049004900495A
:10DAA0000000000000000000000000580064004476
:10DAB0000044004400440044000000000000000056
:10DAC0000000003800440044004400440044003892
:10DAD0000000000000000000000000580064004446
:10DAE0000044004400640058004000400000000072
:10DAF00000000034004C004400440044004C00345A
:10DB0000000400040000000000000050006000401D
:10DB10000040004000400040000000000000000005
:10DB2000000000300048004000300008004800308D
:10DB30000000000000000040004000E00040004005
:10DB400000400040004000600000000000000000B5
:10DB5000000000440044004400440044004C0034F1
:10DB60000000000000000000000000440044002805
:10DB7000002800280028001000000000000000001D
:10DB8000000000490049005500550055005500228D
:10DB900000000000000000000000004400280028F1
:10DBA00000100028002800440000000000000000D1
:10DBB0000000004400440028002800280010001045
:10DBC00000100010000000000000007800080010A5
:10DBD000002000200040007800000000000000103D
:10DBE0000020002000200020004000200020002015
:10DBF0000020002000000020002000200020002045
:10DC00000020002000200020002000200000004014
:10DC10000020002000200020001000200020002014
:10DC200000200020000000000000000000740058E8
:10DC300000000000000000000000000000000000E4
:10DC40000070005000500050005000500050007014
:10DC500000000000000000000000000000000000C4
:10DC600000000000000000000000000000000000B4
:10DC70000000100010001000100010001000000044
:10DC8000100000000000000000002800280028000C
:10DC90000000000000000000000000000000000084
:10DCA0000000140014003E00140028007C0028002E
:10DCB0002800000000000000100038005400500050
:10DCC0003800140014005400380010000000000058
:10DCD00000004400A800A800500014001A002A0008
:10DCE0002400000000000000000020005000500050
:10DCF0002000E8009800980060000000000000008C
:10DD00000000800080008000000000000000000093
:10DD100000000000000000000000400080008000C3
:10DD200080008000800080008000800000000000F3
:10DD300000008000400040004000400040004000E3
:10DD4000400040000000000000004000E0004000F3
:10DD5000A000000000000000000000000000000023
:10DD600000000000000020002000F800200020003B
:10DD700000000000000000000000000000000000A3
:10DD80000000000000000000400040000000000013
:10DD9000000000000000000000000000C0000000C3
:10DDA0000000000000000000000000000000000073
:10DDB0000000000000000000400000000000000023
:10DDC0000000200020002000400040008000800073
:10DDD0008000000000000000000060009000900043
:10DDE0009000900090009000600000000000000093
:10DDF000000020006000A000200020002000200083
:10DE000020000000000000000000600090001000F2
:10DE10001000200040008000F00000000000000022
:10DE200000006000900010006000100010009000E2
:10DE300060000000000000000000100030005000F2
:10DE400050009000F80010001000000000000000DA
:10DE50000000700040008000E00010001000900002
:10DE600060000000000000000000600090008000E2
:10DE7000A000D000900090006000000000000000B2
:10DE80000000F000100020002000200040004000B2
:10DE900040000000000000000000600090009000C2
:10DEA0006000900090009000600000000000000002
:10DEB0000000600090009000B00050001000900042
:10DEC00060000000000000000000000000004000B2
:10DED0000000000000000000400000000000000002
:10DEE00000000000000040000000000000000000F2
:10DEF0004000400000000000000000000000100092
:10DF000060008000600010000000000000000000C1
:10DF10000000000000000000F0000000F000000021
:10DF20000000000000000000000000000000800071
:10DF30006000100060008000000000000000000091
:10DF40000000600090001000200040004000000031
:10DF5000400000000000000000001C0022005B00E8
:10DF6000A500A500A500A5009E004100000000003E
:10DF70000000200050005000500050007000880049
:10DF800088000000000000000000F0008800880009
:10DF9000F000880088008800F00000000000000009
:10DFA00000003800440084008000800084004400A9
:10DFB00038000000000000000000E0009000880031
:10DFC0008800880088009000E00000000000000049
:10DFD0000000F80080008000F800800080008000D1
:10DFE000F800000000000000000078004000400041
:10DFF00070004000400040004000000000000000B1
:10E00000000038004400840080009C00840044002C
:10E010003800000000000000000088008800880030
:10E02000F8008800880088008800000000000000D8
:10E030000000800080008000800080008000800060
:10E040008000000000000000000010001000100020
:10E050001000100090009000600000000000000020
:10E06000000088009000A000E000A0009000900058
:10E070008800000000000000000080008000800098
:10E080008000800080008000F000000000000000A0
:10E0900000008200C600C600AA00AA00AA00AA00CA
:10E0A000920000000000000000008400C400A400F2
:10E0B000A400940094008C00840000000000000084
:10E0C0000000300048008400840084008400480080
:10E0D00030000000000000000000F0008800880010
:10E0E0008800F00080008000800000000000000038
:10E0F0000000300048008400840084008400580040
:10E1000034000400000000000000780044004400D7
:10E110007800500048004400420000000000000069
:10E1200000007000880080007000080088008800EF
:10E1300070000000000000000000F8002000200037
:10E14000200020002000200020000000000000002F
:10E15000000084008400840084008400840048005F
:10E16000300000000000000000008800880050001F
:10E17000500050005000500020000000000000003F
:10E1800000009200AA00AA00AA00AA00AA00AA0001
:10E190004400000000000000000084004800480027
:10E1A00030003000480048008400000000000000FB
:10E1B00000008800500050002000200020002000B7
:10E1C00020000000000000000000F800080010001F
:10E1D0002000200040008000F80000000000000047
:10E1E0000000C0008000800080008000800080006F
:10E1F00080008000000000000000800080004000DF
:10E20000400040004000200020000000000000000E
:10E210000000C000400040004000400040004000BE
:10E22000400040000000000000004000A000A000EE
:10E23000A00000000000000000000000000000003E
:10E2400000000000000000000000000000000000CE
:10E250000000F80000000000000080004000000006
:10E2600000000000000000000000000000000000AE
:10E27000000000000000E00010007000900090001E
:10E280007000000000000000000080008000A0007E
:10E29000D00090009000D000A0000000000000001E
:10E2A00000000000000060009000800080009000EE
:10E2B000600000000000000000001000100050008E
:10E2C000B00090009000B00050000000000000007E
:10E2D00000000000000060009000F000800090004E
:10E2E00060000000000000000000C0008000C000CE
:10E2F000800080008000800080000000000000009E
:10E300000000000000005000B00090009000B0003D
:10E310005000100000000000000080008000A000FD
:10E32000D0009000900090009000000000000000DD
:10E3300000008000000080008000800080008000DD
:10E34000800000000000000000008000000080004D
:10E3500080008000800080008000800000000000BD
:10E360000000800080009000A000C000A00090008D
:10E37000900000000000000000008000800080008D
:10E38000800080008000800080000000000000000D
:10E39000000000000000A600DA0092009200920047
:10E3A0009200000000000000000000000000A0003B
:10E3B000D00090009000900090000000000000004D
:10E3C00000000000000060009000900090009000AD
:10E3D0006000000000000000000000000000A0003D
:10E3E000D00090009000D000A0008000000000004D
:10E3F0000000000000005000B00090009000B0004D
:10E400005000100000000000000000000000A0000C
:10E41000C00080008000800080000000000000003C
:10E42000000000000000E00090004000200090008C
:10E430006000000000000000000080008000C000BC
:10E440008000800080008000C0000000000000000C
:10E450000000000000009000900090009000B000CC
:10E4600050000000000000000000000000008800D4
:10E470008800500050005000200000000000000004
:10E480000000000000009200AA00AA00AA00AA0052
:10E4900044000000000000000000000000008800B0
:10E4A0005000200020005000880000000000000004
:10E4B00000000000000088005000500050002000C4
:10E4C0002000200000000000000000000000F0001C
:10E4D0001000200040008000F0000000000000005C
:10E4E0000000C000800080008000000080008000EC
:10E4F000800080000000000000008000800080009C
:10E50000800080008000800080008000000000000B
:10E510000000C000400040004000200040004000DB
:10E52000400040000000000000000000000000006B
:10E53000E800B00000000000000000000000000043
:10E5400000000000E000A000A000A000A000A000CB
:10E55000E00000002DE9F84F0020009000F066FA7E
:10E5600000F0E4FA00F060FA4FF0D0440020208080
:10E570006088009041F2180540F23F1640F20237E1
:10E580004FF4E85840F2391940F2371A41F2B07BA3
:10E5900040F202204FF4E0614FF48072009B49F298
:10E5A000203C634540F0A280E52323804FF40043E4
:10E5B000638000F047F941F23001618000F04EF9CC
:10E5C00000F037F900F030FA12202080A4F8029011
:10E5D00000F02AFA00F020FA20202080002060803D
:10E5E0002120208000206080302020800620608054
:10E5F0003120208040F201106080322020800320F2
:10E600006080352020804FF4837060803620208029
:10E6100040F60230608037202080678038202080DC
:10E6200040F20770608039202080072060803C2005
:10E6300020804FF4C06060803D20208040F20B209D
:10E640006080502020800020608051202080EF20BA
:10E6500060805220208000206080532020806680CF
:10E66000602020804FF41C506080612020800120B9
:10E6700060806A2020800020608080202080002030
:10E680006080812020800020608082202080002007
:10E6900060808320208000206080842020800020F3
:10E6A00060808520208000206080902020801020C5
:10E6B00060809220208000206080932020800320B2
:10E6C0006080952020804FF48870608097202080A3
:10E6D000002060809820208000206080032020801F
:10E6E00065800720208040F273109AE0009B49F279
:10E6F000253C634540F0968000F0A4F8658000F06A
:10E70000ADF800F096F800F08FF912202080A4F800
:10E71000029000F089F900F07FF92020208000208D
:10E720006080212020800020608030202080072011
:10E7300060803120208067803220208040F20510E8
:10E7400060803521218040F20621618036222280BE
:10E7500040F60802628037232380618038212180BF
:10E7600040F20451618039212180072161803C21E0
:10E77000218060803D202080628050202080002009
:10E78000608051202080EF20608052202080002077
:10E790006080532020806680602020804FF42740D6
:10E7A000608061202080012060806A20208000201D
:10E7B00060808020208000206080812020800020D8
:10E7C00060808220208000206080832020800020C4
:10E7D00060808420208000206080852020800020B0
:10E7E0006080902020801020608092202080002077
:10E7F00060809320208003206080952020804FF44B
:10E800008870608097202080002060809820208081
:10E81000002060800320208065800720208040F257
:10E8200033106080DFF8880300F108014160BDE823
:10E83000F18F10202080A4F802B011202080A4F8CD
:10E8400002A070470023238001236380238062801D
:10E8500002222280618003212180704704212180CF
:10E860000021618008212180608009202080002013
:10E8700060800A202080002060800C202080002002
:10E8800060800D202080002060800F2020800020EC
:10E8900060801020208000206080112020800020D7
:10E8A00060801220208000206080132020800020C3
:10E8B0006080142000F06BB901B4DFF8F402BDF8F9
:10E8C0000010018001B0704701B4DFF8E402BDF828
:10E8D0000010418001B07047DFF8D41248607047E3
:10E8E000DFF8CC024068704770B5044640F23F152F
:10E8F000DFF8BC6207E020222946204600F060F8DD
:10E90000706880882D1AADB2681C80B271688988E1
:10E910008842F0DA70BD10B5044640F23F11002085
:10E9200000F00AF84FF0D040222101804FF49631D8
:10E930004480491EFCD110BD4FF0D04220231380EB
:10E940005080212065E02DE9F84388469146002655
:10E950000446FFF7F1FF4FF0D047DFF8545205E0CF
:10E96000641C4146A0B2FFF7E7FF761C6968C888BF
:10E97000864223D222203880002202E02888788034
:10E98000521C8B889A42EBD239F816C080204FF087
:10E990000C0E93FBFEFE4FEACE0E00FA0EF0104175
:10E9A0001CEA000F01D10D2B06D3012090401CEA78
:10E9B000000FE3D10D2BE1D36888E0E7BDE8F183D8
:10E9C00010B5DFF8EC315B68203AD2B2DC886243E4
:10E9D0001B6803EB4202BDE81040B4E7F8B50446FB
:10E9E0000D4640F23F16DFF8C87108E015F8012B1C
:10E9F00031462046FFF7E4FF78688088361A287889
:10EA000030B1B6B2701C80B2796889888842EDDA7C
:10EA1000F1BD10805180704713202080A4F802803F
:10EA200029202080132060800520B0E01CB5012142
:10EA3000782000F0C7F84CF23370009002208DF877
:10EA400004008DF805000020ADF80600594C00F0D8
:10EA500069F800F045F80C22012100F043F80C227F
:10EA6000042100F03FF80C22052100F03BF800F0F3
:10EA70004BF800F044F800F04CF800F03BF800F0E0
:10EA800034F800F04BF80C22072100F02BF800F0CE
:10EA90003BF800F034F800F03CF80C220B2100F0B9
:10EAA00021F80C220C2100F01DF80C220D2100F0A1
:10EAB00019F800F01FF800F018F8012000903E4C03
:10EAC00000F030F800F00CF84FF480600090034C38
:10EAD00000F028F800F01DF813BD000000180240F7
:10EAE0000C220021204600F0BBB80C220F2120464A
:10EAF00000F0B6B80C220E21204600F0B1B80C226E
:10EB00000921204600F0ACB80C220821204600F074
:10EB1000A7B80C220A21204600F0A2B84FF6807058
:10EB20000090264C00A9204600F062B800B597B0CE
:10EB30000121012000F04FF80320009000200190F7
:10EB40000920029000200390049005900690042074
:10EB5000079000200890099010200A9000200B9048
:10EB60000C900D900E900F904FF48050109000205C
:10EB700011901290139000A81490159007A800F01F
:10EB800081F80121042000F0D8F817B000BD01B4CD
:10EB900081B00020009001980949484301E00098A5
:10EBA000401E009000980028F9D102B07047000084
:10EBB00064000020000C02400014024000100240DB
:10EBC000A0860100084A0029116814BF084321EA01
:10EBD000000010607047054A0029116814BF0843FF
:10EBE00021EA000010607047303802403838024097
:10EBF000F0B50022012393400C681C409C422BD1AD
:10EC000054000325A540ED4306682E4006600668C3
:10EC10000F79A7403E4306600E79012E18BF022EE1
:10EC200011D186682E40866086684F79A7403E43A2
:10EC30008660466826EA0303436043688E799640FF
:10EC4000B6B233434360C3682B40C360C368CD7919
:10EC500005FA04F42343C360521C102ACAD3F0BD42
:10EC600010B5CB1000EB830001F007018900036AA7
:10EC70000F248C40A3430362036A02FA01F1194393
:10EC8000016210BD10B54FF02041426883681A43FD
:10EC9000C3681A4303691A4343691A4383691A43D1
:10ECA000C3691A43036A1A43436A1A43836A1A43BD
:10ECB000C36A1A43036B1A43036841F8232082682E
:10ECC000082A06D1026851F8223043F0400341F887
:10ECD0002230416B0A684B6842EA03128B6842EAB1
:10ECE0000322CB6842EA03420B6942EA03524B69B2
:10ECF00042EA03628969114302689200A2F1C042AC
:10ED000051600168134AC36AB3F5804F10D1806B1C
:10ED10000368446843EA0413846843EA04230469EB
:10ED200043EA0453446943EA04638069184301E0F9
:10ED30006FF0704042F8210010BD4FF020420029D2
:10ED400052F8201012BF41F00101034B194042F864
:10ED500020107047040100A0FEFF0F0080B500F0F6
:10ED600005F80020BDE80240FFF7D5BD94484FF6F6
:10ED7000FF7181800021C180018141818181C18138
:10ED800001210170002141708170C17001827047C2
:10ED900030B587B00446002500E06D1C10F8011B5B
:10EDA0000029FAD11B2D28BF1A2520221B2100A8DB
:10EDB00000F00EF9002000AA06E0C5F11B0100EBEF
:10EDC0005101035D8B54401CA842F6D30020FFF78D
:10EDD000A2FD7C48FFF780FDFFF782FD04464FF659
:10EDE000FF70FFF769FD1F20FFF76EFD0020FFF7A2
:10EDF0007BFD00A9E088FFF7F1FDE0884004000CEE
:10EE0000FFF772FD0020FFF75FFD6F48FFF764FD1D
:10EE100007B030BD30B58BB004461F20FFF754FD5E
:10EE2000FFF75EFD0546002003E000AA202383547F
:10EE3000401C4FF4A071AA8891FBF2F2C0B2531E9D
:10EE40009842F2DB00A81018002100F8011C00A96C
:10EE5000E888C0F1F00080B2FFF7C0FD2146E888E5
:10EE6000C0F1F00080B2FFF7B9FD0020FFF72CFDE4
:10EE70000BB030BD2DE9F0410446FFF731FD504D98
:10EE8000A978002957D16978012907D1E9896981D1
:10EE9000A989298100216970E9702982E9883426CD
:10EEA000DFF828814FF4A072838892FBF3F3994234
:10EEB00001DA0A2C38D16B892F899F4218D395F833
:10EEC00000E0BEF1000F07D17F1C2F81BFB2092FD8
:10EED0000ED100272F810BE000272F7008E0B5F836
:10EEE00006C020270CF80E700CF10107EF80491CBA
:10EEF00006FB038EB0F804C092FBFCFC6145EED328
:10EF0000A888AEF832000020E88000F017F8688981
:10EF1000401C688180B2092804D10020688101204A
:10EF2000288128700A2C06D0E888698906FB0181AF
:10EF30004454401CE8802046BDE8F0812DE9F843A8
:10EF40000027FFF7CDFC04461D4E3089718934251A
:10EF5000DFF87880082911D281420FD305FB0180A8
:10EF6000408EFFF7A9FC708905FB0081C01CE28878
:10EF7000504380B2BDE8F443FFF730BD814238BF53
:10EF80000931A1F1080086B2F019092190FBF1F1D5
:10EF900001EBC101401A80B205FB0089B9F83200CB
:10EFA000FFF78AFC4946F81CE288504380B2FFF71D
:10EFB00015FD7F1C092FE7DBBDE8F1830000000091
:10EFC000A8020020740000207C00002084000020A3
:10EFD00062F30F2262F31F4200B500BF1300964692
:10EFE0009446103928BFA0E80C50FAD85FEA417C5B
:10EFF00028BF0CC048BF40F8042BC90728BF20F821
:10F00000022B48BF00F8012B00BD10B450F8041BC0
:10F0100081B102681218001D50F8043BDC0744BFA0
:10F02000A9F10104E31852F8044B43F8044B091FFB
:10F03000F9D1EBE710BC704780B5FFF78BFAFFF70B
:10F040008DFE0FF2D000FFF7A3FE2D484FF6FF71A3
:10F0500001800FF2D80000F08BF80FF2F800FFF7F4
:10F06000D9FE002000F096F8012000F093F802206D
:10F0700000F090F8032000F08DF8224800684FF46B
:10F080007A71B0FBF1F0B0F1807F2AD21E49000204
:10F09000000A401E48601D48F0220270002088606F
:10F0A00007200860002000F092F8012000F08FF89F
:10F0B000022000F08CF8032000F089F8C82000F04E
:10F0C00011F8002000F083F8012000F080F8022001
:10F0D00000F07DF8032000F07AF8C82000F002F874
:10F0E000E0E7FEE70A49086008680028FCD170479D
:10F0F0000748016811B10168491E016070470000AE
:10F10000AC0200205000002010E000E023ED00E001
:10F11000BC0200202042696E61727920696D6167CE
:10F12000652074656D706C61746520003E205379B4
:10F13000737469636B2074656D706C6174652065B0
:10F1400078616D706C6520737461727465642E0AE9
:10F1500000000000202020202042696E617279208A
:10F16000696D6167652074656D706C617465200000
:10F170000EB400B582B003A9009100AB0246012194
:10F18000034878440A3000F045F806BC5DF810FBEF
:10F19000550300001CB5044601210FF2680050F829
:10F1A0002400FFF70FFD0FF2540030F81400009018
:10F1B00001208DF8040000F016F88DF8050000A974
:10F1C000DFF8340050F82400FFF712FD13BDDFF81C
:10F1D000281051F820104A690FF2200333F810006C
:10F1E00050404861704700208DF8060001208DF8DE
:10F1F000070002207047000054000020400000017A
:10F2000000028000400000004000000000010000FB
:10F21000040000002DE9F04784B08146884614467A
:10F220001E460DF1000A04E014F8011B4046C847D1
:10F230008046207810B904B0BDE8F0872528F3D1C6
:10F24000641C14F8015B252D6FD0582D51D0632D0F
:10F250000ED0642D18BF692D10D06F2D49D0702DA0
:10F260004CD0732D50D0752D18BF782D41D0E0E7CC
:10F270003068011D31600168C9B2D7E73068011DEF
:10F2800031600768002F03D52D214046C8478046CE
:10F290006F2D08BF082105D045F02000782814BF45
:10F2A0000A2110210B203A46642D02D1002F48BFBD
:10F2B0005242431E1846B2FBF1FC01FB1C223032C5
:10F2C000D2B23A2A24BFA5F1510E724403F80A20A3
:10F2D00062460AB10128ECDAC0F10B0500A9471813
:10F2E0004046002DA4D017F8011BC8476D1EFAD167
:10F2F0009EE73068011D31600768C9E73068011D6D
:10F30000316007687825C3E73068011D3160056802
:10F31000284600F01DF807464046002F88D015F813
:10F32000011BC8477F1EFAD182E725217EE750F8EE
:10F33000041B61B150F8042BD30744BFA9F10103AA
:10F340009A18002342F8043B091FFAD1EFE77047EF
:10F3500000F10103810704D010F8011B89B1810776
:10F36000FAD10268B2F10131914311F0803F04BF3C
:10F3700050F8042FF6E710F8011B11B110F8011B2B
:10F38000FBE7C01A7047000082B02B48016841F0CB
:10F3900001010160002181600168284A114001607B
:10F3A00027494160016821F4802101600021C1608A
:10F3B00001910091016841F480310160016801F41C
:10F3C000003100910199491C0191009919B90199E5
:10F3D000B1F5A06FF2D10168490C01F00101009173
:10F3E0000099012923D181688160816841F400413D
:10F3F0008160816841F4A0518160124941600168D7
:10F4000041F08071016001688901FCD50E4940F22C
:10F4100003720A608168890889008160816841F00F
:10F4200002018160816801F00C010829FAD10748C6
:10F430000749016002B0704700380240FFFFF6FE46
:10F4400010300024193C4005003C024008ED00E06B
:10F4500000C0000810B5084979441C31074C7C44B1
:10F460001A34A14206D0081D0A685118884701467F
:10F47000A142F8D110BD00BF080000002800000024
:10F48000AFFEFFFF3C0200008400002000000000EF
:10F490007BFBFFFF8400000008020000000000204A
:10F4A0000000000000F009F8002801D0FFF7D2FFAB
:10F4B0000020FFF7C1FD00F002F80120704700F0C6
:10F4C00001B800000746384600F002F8FBE70000EC
:10F4D00080B5C046C046024A11001820ABBEFBE70B
:10F4E0002600020038B504460D46284600F006F80E
:10F4F000A84218BF0024204632BD00000149FFF792
:10F50000B9BC00BF000000207047FEE7FEE7FEE741
:10F51000FEE7704770477047FFF7EABD0148804734
:10F520000148004789F300082DF50008C046C04691
:10F53000C046C046FFF7B6FFFFF7E6BFFFF7E5BFDF
:10F54000FFF7E4BFFFF7E3BFFFF7E2BFFFF7E1BF5D
:10F55000FFF7E0BFFFF7DFBFFFF7DEBFFFF7FEBF3C
:10F56000FFF7FEBFFFF7FEBFFFF7FEBFFFF7FEBFCF
:10F57000FFF7FEBFFFF7FEBFFFF7FEBFFFF7FEBFBF
:10F58000FFF7FEBFFFF7FEBFFFF7FEBFFFF7FEBFAF
:10F59000FFF7FEBFFFF7FEBFFFF7FEBFFFF7FEBF9F
:10F5A000FFF7FEBFFFF7FEBFFFF7FEBFFFF7FEBF8F
:10F5B000FFF7FEBFFFF7FEBFFFF7FEBFFFF7FEBF7F
:10F5C000FFF7FEBFFFF7FEBFFFF7FEBFFFF7FEBF6F
:10F5D000FFF7FEBFFFF7FEBFFFF7FEBFFFF7FEBF5F
:10F5E000FFF7FEBFFFF7FEBFFFF7FEBFFFF7FEBF4F
:10F5F000FFF7FEBFFFF7FEBFFFF7FEBFFFF7FEBF3F
:10F60000FFF7FEBFFFF7FEBFFFF7FEBFFFF7FEBF2E
:10F61000FFF7FEBFFFF7FEBFFFF7FEBFFFF7FEBF1E
:10F62000FFF7FEBFFFF7FEBFFFF7FEBFFFF7FEBF0E
:10F63000FFF7FEBFFFF7FEBFFFF7FEBFFFF7FEBFFE
:10F64000FFF7FEBFFFF7FEBFFFF7FEBFFFF7FEBFEE
:10F65000FFF7FEBFFFF7FEBFFFF7FEBFFFF7FEBFDE
:10F66000FFF7FEBFFFF7FEBFFFF7FEBFFFF7FEBFCE
:10F67000FFF7FEBFFFF7FEBFFFF7FEBFFFF7FEBFBE
:10F68000FFF7FEBFFFF7FEBFFFF7FEBFFFF7FEBFAE
:10F69000FFF7FEBFFFF7FEBFFFF7FEBFFFF7FEBF9E
:10F6A0000204010158020020A80200205802002094
:10F6B00058020020580200203D00002024000020B5
:10F6C000000000000000000000000000000000003A
:10F6D000000000000000000000000000000000002A
:10F6E00000000000000000000102030406070809F2
:10F6F000000E2707001802400018024000200240B8
:10F70000000802400000FFFF0000000084C1000864
:10F710001000180054D300080C000C0054DC000842
:04F7200008000C00D1
:040000050800F52DCD
:00000001FF
